:100000000C9435000C945D000C945D000C945D0024
:100010000C945D000C945D000C945D000C945D00EC
:100020000C945D000C945D000C945D000C945D00DC
:100030000C945D000C945D000C945D000C945D00CC
:100040000C9479010C945D000C94E9010C94C301AB
:100050000C945D000C945D000C945D000C945D00AC
:100060000C945D000C945D00130311241FBECFEFB0
:10007000D8E0DEBFCDBF11E0A0E0B1E0E4EDF6E0F6
:1000800002C005900D92A632B107D9F721E0A6E291
:10009000B1E001C01D92AD3CB207E1F710E0C5E34D
:1000A000D0E004C02197FE010E946203C433D1074F
:1000B000C9F70E941B020C9468030C940000AF92D5
:1000C000BF92CF92DF92EF92FF920F931F93CF9345
:1000D000DF936C017B018B01040F151FEB015E01A7
:1000E000AE18BF08C017D10759F06991D601ED913C
:1000F000FC910190F081E02DC6010995892B79F7DB
:10010000C501DF91CF911F910F91FF90EF90DF908C
:10011000CF90BF90AF900895FC01538D448D252F53
:1001200030E0842F90E0821B930B541710F0CF9691
:10013000089501970895FC01918D828D981761F0C3
:10014000A28DAE0FBF2FB11D5D968C91928D9F5FDA
:100150009F73928F90E008958FEF9FEF0895FC01B9
:10016000918D828D981731F0828DE80FF11D858D6C
:1001700090E008958FEF9FEF0895FC01918D228DFF
:10018000892F90E0805C9F4F821B91098F73992784
:10019000089580E391E00E94BD0021E0892B09F4DD
:1001A00020E0822F089580E090E0892B29F00E94C2
:1001B000C90081110C9400000895FC01A48DA80FC2
:1001C000B92FB11DA35ABF4F2C91848D90E0019699
:1001D0008F739927848FA689B7892C93A089B189B9
:1001E0008C91837080648C93938D848D981306C05A
:1001F0000288F389E02D80818F7D80830895EF92BE
:10020000FF920F931F93CF93DF93EC0181E0888FD0
:100210009B8D8C8D98131AC0E889F989808185FFA0
:1002200015C09FB7F894EE89FF896083E889F98942
:1002300080818370806480839FBF81E090E0DF9144
:10024000CF911F910F91FF90EF900895F62E0B8D97
:1002500010E00F5F1F4F0F731127E02E8C8D8E1152
:100260000CC00FB607FCFACFE889F989808185FFB9
:10027000F5CFCE010E94DD00F1CFEB8DEC0FFD2F0D
:10028000F11DE35AFF4FF0829FB7F8940B8FEA8974
:10029000FB8980818062CFCFCF93DF93EC01888D83
:1002A0008823B9F0AA89BB89E889F9898C9185FDF1
:1002B00003C0808186FD0DC00FB607FCF7CF8C917F
:1002C00085FFF2CF808185FFEDCFCE010E94DD005A
:1002D000E9CFDF91CF910895FC0101900020E9F76B
:1002E0003197AF01481B590BBC0180E391E00C949E
:1002F0005F001F920F920FB60F9211242F933F931E
:100300008F939F93AF93BF9380912C0190912D0178
:10031000A0912E01B0912F0130912B0123E0230FEA
:100320002D3758F50196A11DB11D20932B01809307
:100330002C0190932D01A0932E01B0932F01809159
:10034000270190912801A0912901B0912A010196DD
:10035000A11DB11D8093270190932801A09329012D
:10036000B0932A01BF91AF919F918F913F912F91AF
:100370000F900FBE0F901F90189526E8230F02963E
:10038000A11DB11DD2CF1F920F920FB60F92112453
:100390002F933F934F935F936F937F938F939F938D
:1003A000AF93BF93EF93FF9380E391E00E94DD0052
:1003B000FF91EF91BF91AF919F918F917F916F913D
:1003C0005F914F913F912F910F900FBE0F901F9013
:1003D00018951F920F920FB60F9211242F938F939F
:1003E0009F93EF93FF93E0914001F0914101808151
:1003F000E0914601F091470182FD1BC09081809100
:1004000049018F5F8F7320914A01821741F0E0917B
:100410004901F0E0E05DFE4F958F80934901FF9127
:10042000EF919F918F912F910F900FBE0F901F9082
:1004300018958081F4CFCF93DF93CDB7DEB7A19726
:100440000FB6F894DEBF0FBECDBF789484B582603E
:1004500084BD84B5816084BD85B5826085BD85B568
:10046000816085BD80916E00816080936E001092E6
:100470008100809181008260809381008091810061
:1004800081608093810080918000816080938000F2
:100490008091B10084608093B1008091B000816050
:1004A0008093B00080917A00846080937A0080917C
:1004B0007A00826080937A0080917A0081608093D4
:1004C0007A0080917A00806880937A001092C1004F
:1004D00084B18C6284B924982A9A81E58CBD8DB54B
:1004E0008E7F8DBDE0914001F091410182E08083DB
:1004F000E0913C01F0913D011082E0913E01F091CC
:100500003F018FEC808310924801E0914401F0910B
:10051000450186E08083E0914201F09143018081B2
:1005200080618083E0914201F09143018081886085
:100530008083E0914201F091430180818068808353
:10054000E0914201F091430180818F7D808382E1BF
:1005500091E00E946C0183E291E00E946C0178942A
:100560002FEF83ED90E3215080409040E1F700C0F1
:100570000000DD24DA948AE0882E912CA12CB12C85
:1005800090E0E92E90E0F92ECC24C39480912601CE
:100590008F5F853608F044C0809326012A988091A9
:1005A00026018EBD0DB407FEFDCF8EB5EFEFF1EE47
:1005B00024E0E150F0402040E1F700C00000DEBC44
:1005C0000DB407FEFDCF2EB530E050E040E019A29B
:1005D0008E010F5D1F4FCA01B901A50194010E9450
:1005E0004003605DF80162938F01211531054105DB
:1005F000510589F7309719F0CF010E946C0183E211
:1006000091E00E946C012A9AE114F10409F4BECF32
:100610000E94C900882309F4B9CF0E940000B6CF18
:10062000C0922601BBCFE0E3F1E01382128288EE94
:1006300093E0A0E0B0E084839583A683B78384E051
:1006400091E09183808385EC90E09587848784ECAA
:1006500090E09787868780EC90E0918B808B81EC8F
:1006600090E0938B828B82EC90E0958B848B86EC70
:1006700090E0978B868B118E128E138E148E0895B8
:10068000A1E21A2EAA1BBB1BFD010DC0AA1FBB1F96
:10069000EE1FFF1FA217B307E407F50720F0A21B08
:1006A000B30BE40BF50B661F771F881F991F1A9475
:1006B00069F760957095809590959B01AC01BD019F
:1006C000CF010895EE0FFF1F0590F491E02D0994DE
:0406D000F894FFCFCC
:1006D40000000000FF005F008C004C01BD009B0087
:1006E400AF0048492066726F6D204D617374657266
:0606F4002032000D0A0097
:00000001FF
